{
  "contractName": "challenge",
  "abi": [
    {
      "inputs": [],
      "stateMutability": "nonpayable",
      "type": "constructor"
    },
    {
      "inputs": [],
      "name": "owner",
      "outputs": [
        {
          "internalType": "address",
          "name": "",
          "type": "address"
        }
      ],
      "stateMutability": "view",
      "type": "function",
      "constant": true
    },
    {
      "inputs": [
        {
          "internalType": "uint256",
          "name": "num",
          "type": "uint256"
        }
      ],
      "name": "require_impl",
      "outputs": [
        {
          "internalType": "uint256",
          "name": "",
          "type": "uint256"
        }
      ],
      "stateMutability": "view",
      "type": "function",
      "constant": true
    },
    {
      "inputs": [
        {
          "internalType": "uint256",
          "name": "a",
          "type": "uint256"
        }
      ],
      "name": "revert_impl",
      "outputs": [
        {
          "internalType": "uint256",
          "name": "",
          "type": "uint256"
        }
      ],
      "stateMutability": "pure",
      "type": "function",
      "constant": true
    },
    {
      "inputs": [
        {
          "internalType": "uint256",
          "name": "b",
          "type": "uint256"
        }
      ],
      "name": "assert_imp",
      "outputs": [
        {
          "internalType": "uint256",
          "name": "",
          "type": "uint256"
        }
      ],
      "stateMutability": "view",
      "type": "function",
      "constant": true
    }
  ],
  "bytecode": "0x608060405234801561000f575f80fd5b50335f806101000a81548173ffffffffffffffffffffffffffffffffffffffff021916908373ffffffffffffffffffffffffffffffffffffffff16021790555061059c8061005c5f395ff3fe608060405234801561000f575f80fd5b506004361061004a575f3560e01c8063659fb4d41461004e5780636d010ad61461007e5780636fb7f8fd146100ae5780638da5cb5b146100de575b5f80fd5b610068600480360381019061006391906102c0565b6100fc565b60405161007591906102fa565b60405180910390f35b610098600480360381019061009391906102c0565b6101e5565b6040516100a591906102fa565b60405180910390f35b6100c860048036038101906100c391906102c0565b61020b565b6040516100d591906102fa565b60405180910390f35b6100e6610266565b6040516100f39190610352565b60405180910390f35b5f805f9054906101000a900473ffffffffffffffffffffffffffffffffffffffff1673ffffffffffffffffffffffffffffffffffffffff163373ffffffffffffffffffffffffffffffffffffffff161461018b576040517f08c379a0000000000000000000000000000000000000000000000000000000008152600401610182906103eb565b60405180910390fd5b600a82116101ce576040517f08c379a00000000000000000000000000000000000000000000000000000000081526004016101c590610453565b60405180910390fd5b6005826101db919061049e565b9150819050919050565b5f600a82146101f7576101f66104d1565b5b600a82610204919061049e565b9050919050565b5f600382610219919061049e565b9150600a821061025e576040517f08c379a000000000000000000000000000000000000000000000000000000000815260040161025590610548565b60405180910390fd5b819050919050565b5f8054906101000a900473ffffffffffffffffffffffffffffffffffffffff1681565b5f80fd5b5f819050919050565b61029f8161028d565b81146102a9575f80fd5b50565b5f813590506102ba81610296565b92915050565b5f602082840312156102d5576102d4610289565b5b5f6102e2848285016102ac565b91505092915050565b6102f48161028d565b82525050565b5f60208201905061030d5f8301846102eb565b92915050565b5f73ffffffffffffffffffffffffffffffffffffffff82169050919050565b5f61033c82610313565b9050919050565b61034c81610332565b82525050565b5f6020820190506103655f830184610343565b92915050565b5f82825260208201905092915050565b7f6f6e6c79206f776e65722063616e206578656375746520746869732066756e635f8201527f74696f6e00000000000000000000000000000000000000000000000000000000602082015250565b5f6103d560248361036b565b91506103e08261037b565b604082019050919050565b5f6020820190508181035f830152610402816103c9565b9050919050565b7f6e756d6265722073686f756c642062652067726561746572207468616e2031305f82015250565b5f61043d60208361036b565b915061044882610409565b602082019050919050565b5f6020820190508181035f83015261046a81610431565b9050919050565b7f4e487b71000000000000000000000000000000000000000000000000000000005f52601160045260245ffd5b5f6104a88261028d565b91506104b38361028d565b92508282019050808211156104cb576104ca610471565b5b92915050565b7f4e487b71000000000000000000000000000000000000000000000000000000005f52600160045260245ffd5b7f6e756d6265722073686f756c64206265206c657373207468616e2031300000005f82015250565b5f610532601d8361036b565b915061053d826104fe565b602082019050919050565b5f6020820190508181035f83015261055f81610526565b905091905056fea2646970667358221220784f919dc2b1e0c907d5c97df4586772b5b1b491850f7235cb7c877f4849c54764736f6c63430008140033",
  "immutableReferences": {},
  "source": "// SPDX-License-Identifier: MIT\r\npragma solidity ^0.8.17;\r\ncontract challenge{\r\n\r\n    address public owner;\r\n\r\n    constructor(){\r\n        owner=msg.sender;\r\n    }\r\n\r\n    function require_impl(uint num)public view returns(uint) {\r\n        require(msg.sender==owner,\"only owner can execute this function\");\r\n        require(num>10, \"number should be greater than 10\");\r\n        return(num=num+5);\r\n    }\r\n\r\n    function revert_impl(uint a)public pure returns(uint) {\r\n\r\n       a=a+3;\r\n        if(a>=10){\r\n         revert(\"number should be less than 10\");     \r\n           }\r\n       return(a); \r\n    }\r\n\r\n    function assert_imp(uint b)public view returns(uint){\r\n        assert(b==10);\r\n        return(b+10);\r\n    }\r\n}",
  "sourcePath": "C:\\Users\\jaide\\challenge\\contracts\\challenge.sol",
  "compiler": {
    "name": "solc",
    "version": "0.8.20+commit.a1b79de6.Emscripten.clang"
  },
  "schemaVersion": "3.4.14",
  "updatedAt": "2023-05-31T12:30:15.200Z",
  "networkType": "ethereum",
  "devdoc": {
    "kind": "dev",
    "methods": {},
    "version": 1
  },
  "userdoc": {
    "kind": "user",
    "methods": {},
    "version": 1
  }
}